:020000003528A1
:0E0006008312031321088A00200882000800DC
:1000140083120313F101F20123087202031D142851
:100024002208710203182828F301F4010430740231
:10003400031D1E28FB30730203182428F30A031936
:0E004400F40A1828F10A0319F20A0E2808001F
:1000520003208A110A128000840AA00A0319A10A45
:08006200F003031D292808002A
:10006A008316031386015530831286000A30A200D4
:10007A000030A3000A20AA3086000A30A20000300D
:08008A00A3000A2038284828D1
:02400E004A2F37
:00000001FF
