:1000000058EF00F00000000000EF00F000000000DA
:0A0010000000000000000000F3D71C
:10001C00020E0C6E490E0D6E0D2EFED70C2EFCD75B
:06002C00000000001200BC
:100032000900F5CFE6FF0006FBE10106F9E1120037
:100042001C6A18C001F0010E006E015004E0003677
:100052000090FF0FFBD700C01BF016C0E9FF17C0CE
:10006200EAFF0050EE14016E0152010ED8A4000EF8
:10007200006E1A50001A18E01950000804E2CDDF91
:10008200CCDF1906F9D716C0E9FF17C0EAFF1B50EB
:10009200EE14016E0152010ED8A4000E006E1A5029
:0E00A200001A02E0FF0E1C6E1CC000F01200DF
:1000B0007E6A7F6A7B9E7A9E9380946AAA0E826E85
:1000C0001590810E166E0F0E176E186A010E196EBE
:1000D000010E1A6EB6DF0052D8A4158015A00DD0FF
:1000E000810E166E0F0E176E186A010E196E1A6ABF
:0E00F000A8DF005202E0821E1590E3D7FFD772
:020000040030CA
:0D000100021F1EFF8B81FF0FC00FE00F409C
:00000001FF
